S010000057686174657665722E73726563CE
S11300000C942A000C9447000C9447000C9447006D
S11300100C9447000C9447000C9447000C94470040
S11300200C944E010C9447000C9447000C94470028
S11300300C9447000C9447000C9447000C94470020
S11300400C945F010C9447000C9447000C944700F7
S11300500C94470011241FBECFE5D4E0DEBFCDBF12
S113006010E0A0E6B0E0E2E3F4E002C005900D92F7
S1130070AC39B107D9F720E0ACE9B0E001C01D927A
S1130080AF39B207E1F70E94CC010C9417020C942B
S113009000001F93CF93DF93EC018FE01FEF180F45
S11300A061E00E94C0009E01ADECBCEC0E9408021D
S11300B09695879596958795969587959C01220F99
S11300C0331F880F991F880F991F880F991F820F5C
S11300D0931F9E01281B390BC901805D0E94CE002D
S11300E09E01ADECBCEC0E940802EC01D695C795CC
S11300F0D695C795D695C795209711F0812FCECF69
S1130100DF91CF911F910895969A00C09698089513
S1130110CF93C82F662311F0979A01C097988D9AB0
S11301208C9A8B9A8A9A9298939894989598CC23BF
S11301300CF4929AC6FD939AC5FD949AC4FD959ABF
S11301400E9484009298939894989598C3FD929AEB
S1130150C2FD939AC1FD949AC0FD959A0E948400B1
S1130160959A949A939A929ACF910895EFE1FEE426
S11301703197F1F700C0000060E00E948800089504
S1130180611104C080580E94B600089580540E94F2
S1130190B600089581E00E94B6000895EFE1FEE400
S11301A03197F1F700C000008A3021F480EC0E94FE
S11301B0B600089561E00E9488008FE19EE40197F3
S11301C0F1F700C00000EFE1FEE43197F1F700C061
S11301D000000895CF93DF93EC012196FC01808108
S11301E0882329F00E94CE0089918111FBCFDF91F1
S11301F0CF910895CF93C82F8F9A8E9A8D9A8C9A07
S11302008B9A8A9AE0E0FDE73197F1F7949A959AF0
S11302100E948400E0E0F7E23197F1F70E94840045
S1130220E0E8F0E03197F1F70E948400E0E8F0E0C4
S11302303197F1F795980E948400E0E8F0E0319757
S1130240F1F788E20E94B60088E00E94B6000E949E
S1130250CA0086E00E94B6008C2F0E94B600CF919F
S1130260089510BC83E389B98AB188618AB980B5DD
S1130270866880BD08955D9BFECF8CB90895CF93A9
S1130280DF93EC018881882331F021960E943B01A1
S113029089918111FBCFDF91CF9108951F920F9225
S11302A00FB60F9211248F931EBCF89482E08093B2
S11302B09C008F910F900FBE0F901F9018951F9266
S11302C00F920FB60F9211242F933F934F935F9386
S11302D06F937F938F939F93AF93BF93EF93FF930A
S11302E01EBCF89480E690E00E943F0110929C00AE
S11302F0FF91EF91BF91AF919F918F917F916F91FA
S11303005F914F913F912F910F900FBE0F901F90CF
S1130310189593E098BB90E897BB2FEF32E597E0F0
S1130320215030409040E1F700C0000017BA18BADD
S113033091E090939C001DBC1CBC94E099BF789400
S11303409EB595609EBD813069F080F0823031F0B9
S1130350833079F480E187BB88BB0BC080E287BB24
S113036088BB07C080E487BB88BB03C080E887BB29
S113037088BB80919C008130E1F3F89480919C00CB
S1130380823041F08CB59DB590939E0080939D0082
S113039080E0089582E008958FEC97E00197F1F7EB
S11303A000C000008CE00E94FA0088E890E00E94FF
S11303B0EA000E94310187E790E00E943F0188E84B
S11303C090E00E943F018AE488B980B7877F80BFAC
S11303D084E08BBB9FEF20E782E091502040804077
S11303E0E1F700C0000081E00E948901882339F010
S11303F0823059F48CE790E00E943F0106C080915E
S11304009D0090919E000E94490080E090E0089534
S1130410A29FB001B39FC001A39F700D811D112441
S1130420911DB29F700D811D1124911D0895F894A2
S1050430FFCFF8
S11304324B6F6D70617261746F7220696E74657254
S1130442727570740A0D000D0A0D0A0054756C63FE
S1130452736F7264756C74004B617061636974616B
S10F0462736D65726F2076312E3000003F
S9030000FC
